:1000000000308A00B1290000FF00030E8301A60022
:100010007F08A5000A08AD008A01A50E0408A70004
:100020002008A8002108A9002208AA002308AB0084
:100030002408AC00831383120B1E20288B183D2844
:100040008C308400001C26280C183F288B1E2A2880
:100050000B194128270884002808A0002908A100BE
:100060002A08A2002B08A3002C08A4002D088A004F
:10007000260E8300FF0E7F0E09008A1172288A1156
:1000800043288A1169280130B1073108043C031D57
:100090004E28AE0ABC03B101203085063C08FF3C67
:1000A000031D5528BD033B30BC002E08393C031D01
:1000B0005B28AF0AAE012F083C3C031D6128B00A43
:1000C000AF013008183C031D6628B0010C108A11DE
:1000D0002A28B80A3808043C031D6F28B8010B1100
:1000E0008A112A280230413C031D7A280130C100C0
:1000F0008B107D280030C100762809008B108A11F2
:100100002A284508A1014402031889284408A000B0
:100110009528A0010830C600C40DA00D4508200296
:100120000318A000A10DC60B8C28003445308400B4
:10013000831300080319AA280130A100A001A00B15
:100140009F28A10B9E284A30A000A00BA528A82814
:10015000800B9C280034BD011E30BC00C201C208C7
:10016000031D3229C3013D08C4000A30C5008120A7
:100170002108B5003D08C4000A30C50081202008D0
:10018000B4003C08C4000A30C50081202108BE002C
:100190003C08C4000A30C50081202008BF00B80810
:1001A000031DD72840303407B20032088700380BCF
:1001B000DE2880303507B200320887003808023C5C
:1001C000031DE72810303F07C000400887003808AB
:1001D000033C031DF02820303E07C0004008870084
:1001E0008512BD08031D0629BC08031D0629C30886
:1001F000031D062902308506FA30C5009620861AAE
:100200000529C10AC20AC30A8510F72886191929C7
:100210000230BC02C308031D192902308506FA30DA
:10022000C5009620061A1829C10AC20AC30A8510F9
:100230000A29061A1E29C10AC20A8510861A3129FE
:100240000A30BC02C308031D312902308506FA308A
:10025000C500962086193029C10AC20AC30A851032
:100260002229AF288A11E9292F08C4000A30C500C5
:1002700081202108B5002F08C4000A30C500812064
:100280002008B4003008C4000A30C50081202108CD
:10029000B7003008C4000A30C50081202008B6002D
:1002A000B808031D582910303407B20032088700FF
:1002B000380B5F2920303507B20032088700380834
:1002C000023C031D682940303607B300330887001D
:1002D0003808033C031D712980303707B300330809
:1002E000870000343B08C4000A30C5008120210883
:1002F000B5003B08C4000A30C50081202008B400C6
:100300003A08C4000A30C50081202108B7003A0825
:10031000C4000A30C50081202008B600B808031DBB
:10032000962910303407B20032088700380B9D2917
:1003300020303507B200320887003808023C031D20
:10034000A62940303607B300330887003808033C3D
:10035000031DAF2980303707B300330887008512AB
:100360000034840183131F30830583161F149F14E8
:100370001F159F1107309C008312AE01AF01B00121
:10038000B101B801B9010A30BA001E30BB00C10189
:10039000003083168700FF3086000D308500831201
:1003A0008B1683160C1483120B16C0308B04831625
:1003B00001130108C03903388100A5308312900071
:1003C000833081000B308F00DC308E00410BEA2936
:1003D000AB28E629B908031D012A8618F829B00AB6
:1003E0009630C50096203008183C031DF829B0014E
:1003F0000619FF290130B9079630C500962034212F
:10040000EA29390B162A86180E2AAF0A9630C5003B
:1004100096202F083C3C031D0E2AAF010619142A12
:10042000B90A9630C50096203421012A3908033CC8
:10043000031D2D2A8618252ABA0A9630C500962053
:100440003A08183C031D252ABA0106192B2AB90AB5
:10045000C830C50096207221162A3908043C031DB5
:10046000442A86183C2ABB0A9630C50096203B08D1
:100470003C3C031D3C2ABB010619422AB90AC8307C
:10048000C500962072212D2A342106194B2AB90A5B
:10049000C830C50096203908053C031D512A02309A
:1004A000B9003B082F02031D662A3A083002031DDB
:1004B000662A02308506C400FA30C5009620C40BB7
:1004C0005C2A061A662A8510BA01BB01E629630078
:02400E00713F00
:00000001FF
;PIC16F873A
